:040000008831682CAF
:1000080070082000A4007B08A3007C08A2007D08DB
:10001800A1008A018301911C5728C80A0319C90A3B
:10002800490821003B06031D1C283A082000480601
:10003800031D55282000C801C9010E131C112800F2
:10004800171101302000EB002100C2018030420668
:10005800F0008030053A70020318522820008E17ED
:100068000230FB000430FC00BA30FD00FD0B3A28DA
:10007800FC0B3A28FB0B3A2800008E130230FB00D9
:100088000430FC00BA30FD00FD0B4828FC0B482862
:10009800FB0B482800002100C20A2A28AB012000D7
:1000A800A50120009110931C6928C30A0319C40AEA
:1000B80000304406031D62280F304306031D6828DC
:1000C800C301C4010130E8009310931D7B28C10AC5
:1000D8000319C20A00304206031D74280F30410676
:1000E800031D7A28C101C2010130EC0093112700D9
:1000F800161ECA288230FC00DD30FD00FD0B822868
:10010800FC0B82280000000021002B08013A031D87
:10011800C82820004508013A031DC828EC0128001A
:100128001E1120000E130130EB002100C2018030A7
:100138004206F0008030053A70020318C3282000F8
:100148008E170230FB000430FC00BA30FD00FD0BB6
:10015800AB28FC0BAB28FB0BAB2800008E1302303E
:10016800FB000430FC00BA30FD00FD0BB928FC0B85
:10017800B928FB0BB92800002100C20A9B28AB0153
:100188002000C501CB01CA0127001612200024084F
:10019800F0002308FB002208FC002108FD000900EC
:0E01A800F201F101F001F801F301003008004E
:1001B6007B15FB1FE5280130F300F201F101F00188
:0801C600FA0DF20CFF300800F5
:0801CE00FA1FF21300300800D3
:1001D600FB14FB1FF528FF30F300F200F100F000DE
:0801E600FA0DF20CFF300800D5
:1001EE000830FC002330FD00FD0BFB28FC0BFB2828
:0201FE000800F7
:0402000000000800F2
:100204007C183829FC1809297C1957290229A001CE
:100214007208031D29297108F2007008F10078089A
:10022400F000F801A0157208031D29297108F200D5
:100234007008F100F001A01120167208031D29298D
:100244007108F200F101A015720803194B29200866
:10025400F302031D031C4F290310F21B3829F80D68
:10026400F00DF10DF20DF30B2F294F297B1B701CA0
:100274005329F81F5329F00A0319F10A0319F20A42
:10028400031D5329F20CF10CF00CF30A031957293E
:1002940053290130FC00D4205A290230FC00DB2011
:1002A4005A290430FC00E7205A290830FC00EB20CE
:0402B400000008003E
:0C02B8001030FD00FD0B5E290000080066
:1002C400A0017208031D77297108F2007008F1007B
:1002D400F001A0157208031D77297108F200F101DD
:1002E400A01120167208031985292008F302031DA2
:1002F400031C89290310F21B8D29F00DF10DF20D59
:10030400F30B7D2989290130FC00D4209029023087
:0E031400FC00DB2090290430FC00E7200800EC
:100322002100DD1B972920000E10992920000E14B0
:1003320021005D1B9F2920008E12A12920008E160C
:100342002100DD1AA72920008E10A92920008E1471
:1003520021005D1AAF2920000E12B12920000E16CD
:1003620021004118B72920008E15B92920008E11CD
:100372000E1500210E112100DD19C22920000E10D8
:10038200C42920000E1421005D19CA2920008E12F2
:10039200CC2920008E162100DD18D22920008E10D3
:1003A200D42920008E1421005D18DA2920000E12B3
:1003B200DC2920000E1621004118E22920008E15AA
:1003C200E42920008E110E1500210E112100411C7E
:0A03D200EC29F720ED295C2108005A
:1003DC002000F8010830FC00700DF80D7408F802CC
:1003EC000318FA29F8070310F00DFC0BF22908008A
:0A03FC000730FD00FD0B002A080089
:10040600200072087606A000F801F9017308770249
:10041600031C252A7708FD007308F7007D08F30002
:100426007608FD007208F6007D08F2007508FD00EA
:100436007108F5007D08F1007408FD007008F400ED
:100446007D08F000770803199E2A7208FA00F21751
:10045600F61777087302F7000319582A083077024F
:10046600031C4E2AF7007408F9007508F400760894
:10047600F500F60108307702031C4E2AF7007408CF
:10048600F9007508F400F50108307702031C4E2ABE
:100496007A08F2009E2A77080319582A0310F60CE8
:1004A600F50CF40CF90CF70B512AA01F652AF90973
:1004B600F409F509F609F90A0319F40A0319F50A04
:1004C6000319F60A7908F80774080318740FF00779
:1004D60075080318750FF10776080318760FF207EB
:1004E600A01B7E2A031C8E2AF20CF10CF00CF80CD1
:1004F600F30F8E2A9A2A0318922AF809F009F109AD
:10050600F209F80A0319F00A0319F10A0319F20AA3
:100516008030FA06962A0130FC000221A02A023019
:10052600FC000221A02A0430FC006221A02A083027
:0E053600FC00EB20A02A0030FC0000000800B2
:100544007B14FB1FAD2AF201FA1FFF30F200F10009
:0A055400F000FA0DF20CFF30080071
:10055E0020007008F8007108F0007208F1007308AE
:10056E00F200F301FB01FC019E30F300FA01F21FD1
:10057E00CC2AF809F009F109F209F80A0319F00A70
:10058E000319F10A0319F20AFA170230FC000221CC
:02059E00080053
:0A05A00020008030F6060322080058
:1005AA00210041105708DD00912121004114080063
:1005BA00710DF80DF90D7408F8027508031C750F12
:1005CA00F902F00DF10D0F30FC00710DF80DF90D67
:1005DA007408701CF62AF8027508031C750FF902D4
:1005EA00FB2AF80775080318750FF907F00DF10DC6
:1005FA00FC0BEA2A7018072B7408F8077508031809
:08060A00750FF907000008005C
:06061200FB15FF3008009B
:100618002100DA0103305A0203181C2B5A08580724
:1006280086000030593D870020308100DA0A0E2B01
:100638005A08580786000030593D87008101DA03BF
:100648005A085807DB000030593DDC000A30F40036
:100658005708F000EE217808F0003030F00721004C
:100668005B0886005C088700700881000A30F40087
:100678005708F000EE2170082100D7007008003AF2
:0C068800031D472B492BDA03242B08002C
:100694002000FB01FC01F80173080319C12B720847
:1006A400FA00F2179E30F302F31FB12BF309F30A99
:1006B40008307302031C862BF300F80D7008F80051
:1006C4007108F0007208F100F20108307302031C93
:1006D400862BF300F80D7008F8007108F000F101A2
:1006E40008307302031C862BF300F80D7008F80021
:1006F400F00108307302031C862BF300F80DF80197
:100704007308031D0310902B73080319902B031017
:10071400F20CF10CF00CF80CF30B892B7B1B781CFE
:100724009E2B031C9E2BF80A0319F00A0319F10AE5
:100734000319F20AF21BBE2BFA1FC12BF209F109AD
:10074400F009F809F80A0319F00A0319F10A031960
:10075400F20AC12BF201F101F001F801C12B7B1463
:10076400FB1FC42BF201FA1FC42BF200F100F000AE
:10077400F800FA0DF20CC42B0130FC00C62B00303B
:10078400FC00C62BFF30FC00FC080319CA2BA22274
:100794007208F3007108F2007008F1007808F000A4
:0207A40008004B
:1007A6002000FA017308031D7A147708031DFA1452
:1007B6007A0803191E2C033A0319E92B7A18E62B3B
:1007C600F61F1C2C1A2CF21F1A2C1C2C72088039AE
:1007D600FA00F21376088039F6137A060319F72B16
:1007E6007A0803191A2C1C2C770873020319FE2B9E
:1007F600031C122C162C760872020319052C031CF6
:10080600122C162C7508710203190C2C031C122CC1
:10081600162C7408700203191E2C0318162CFA08DD
:1008260003191C2C1A2CFA0803191A2C1C2C031455
:0E083600080003100800031403150800080052
:10084400833021009D055708F000F035F03570081D
:100854009D04FE219D149D1C302C2D2C1C08F100A0
:0C086400F0011B08F0040030F104080053
:1008700022302100C3000430C400D730C50000304E
:0C088000C600F0309E009D011D14080011
:10088C0020007008F800FB01FC019E30F300FA0117
:0E089C00F201F101F0010230FC00022108001F
:1008AA0021005008F000F101F201F301FF30F005D8
:1008BA000030F1057008D5007108D6007F3070024B
:1008CA00F2000030713BF3007208D5007308D600BD
:1008DA0080307306F00080307002031D762C0030E1
:1008EA00720203189A2CF401F501F601F7014D087A
:1008FA00F0004E08F1004F08F2005008F300D3232D
:10090A00013003180030F00070080319952C0030EC
:10091A00F0000030F1008030F2007F30F300F32C59
:10092A00F001F101F201F301F32C21005608003C19
:10093A00031DA12C5508183C0318AC2C4D08F000D7
:10094A004E08F1004F08F2005008F300F32C4D084E
:10095A00F0004E08F1004F08F2005008F3004A2355
:10096A00AF2270082100D1007108D2007208D300AA
:10097A007308D4007008F4007108F5007208F600D4
:10098A007308F7004D08F0004E08F1004F08F20016
:10099A005008F300D323013003180030F000700828
:1009AA000319EA2C0030F4000030F5000030F6009C
:1009BA007F30F70021005108F0005208F100530877
:1009CA00F2005408F300D022F32C21005108F00061
:0E09DA005208F1005308F2005408F300080020
:1009E8002100D201D3014D08D4000030D41BFF30C0
:1009F800D50080304D06F0008030003A70020318B0
:100A0800102DD20A0319D30A4D08003CD400D50191
:100A18000030CD1BFF30D53B5408D7004E08D80016
:100A28004F08D9000C230430D0000030D100510801
:100A3800003C031D212D5008003C03183C2D500894
:100A48004E07860051084F3D870001305002F000E4
:100A58000030513BF10070084E07840071084F3D8B
:100A68008500000881000130D0020030D13B1B2DE9
:100A78004E0886004F088700203081005208530432
:100A88000319622DD001D10150084E078400510886
:100A98004F3D85000008203A031D562DD00A031942
:100AA800D10A482D0130D0020030D13B50084E0702
:0E0AB800860051084F3D87002D308100080058
:100AC6007408003A031D7C2D7508003A031D7C2D21
:100AD6007608003A031D7C2D7708003A031D7C2D0D
:100AE600FF30F000FF30F1007F30F200FF30F300FE
:100AF600162E2000770803190A2E730803190D2EE7
:100B0600720876068039FA00F217F617A001720805
:100B1600F8007108FC007008FD007408FD027508F5
:100B2600031C750FFC027608031C760FF802F80109
:100B3600FC01FD01031CA62D0310F20CF10CF00CB8
:100B4600F80C0130A0007708F302031CB02D7E30AC
:100B56002007F3070318102EB52D7E302007F30764
:100B6600031C132E1830FA07FD0DFC0DF80DF00DC1
:100B7600F10DF20DA00D7408F0027508031C750F37
:100B8600F1027608031C760FF202760DA004201CF3
:100B9600CE2D7D14D92D7408F00775080318750F2E
:100BA600F10776080318760AF2077D10FA031F305C
:100BB6007A05031DB72D7B1B7D1C002E0310F00D3F
:100BC600F10DF20DA00D7408F0027508031C750FE7
:100BD600F1027608031C760FF202760D2004013925
:100BE600FD070318FC0A0319F80A031D002EF80C6A
:100BF600FC0CFD0CF30A0319102EFA1FF8137808E3
:100C0600F2007C08F1007D08F0000030152E01305E
:100C16000923152E0230D420152E0430EB20152E74
:080C26000830DB20000008008B
:100C2E002000FB017308031D770803196D2E72084F
:100C3E007606FA007708F3077E30031C2A2EF3029D
:100C4E000318702E2D2EF302031C732E7208F8005B
:100C5E007108FC007008FD00F817F6170310F2017A
:100C6E00F101F0011830A0007D1C472E7408F0072A
:100C7E0075080318750FF10776080318760FF2073B
:100C8E00F20CF10CF00CF80CFC0CFD0C0310A00B8C
:100C9E003B2EF21B572EF80DF00DF10DF20DF30356
:100CAE007B1B701C692EF81F692EF00A0319F10ABE
:100CBE000319F20A031D692EF20CF10CF00CF30A63
:100CCE000319702EFA1FF2130030752E0130D42046
:100CDE00752E0230EB20752E0430DB20000008004C
:100CEE0020007008F8007108F000F101F201F30124
:100CFE00FB01FC019630F300FA01F01F8C2EF8096F
:100D0E00F009F80A0319F00AFA177008F1007808CA
:0A0D1E00F000F801F2016221080064
:100D280021004D0823009100920121004E08230064
:100D380093001513951315150B08F0008B135530F8
:100D48009600AA3096009514F01BAC2E8B13AD2E8E
:0C0D58008B171511951CB12EAE2E080053
:0C0D640038244D08D70022241D10080080
:100D7000C92E80302100CD00DB2EC030CD00DB2E0F
:100D80009430CD00DB2ED430CD00DB2E8030CD0072
:100D9000DB2E21004D08013A0319B92E4D08023A05
:100DA0000319BD2E4D08033A0319C02E4D08043A0D
:100DB0000319C32EC62E4E03F0004D08F00770082D
:100DC000CD007008DD00912121004110D1015108B2
:100DD0004F0784000030503D850000080319FB2EAA
:100DE00051084F0784000030503D85000008D700AF
:0A0DF000D522D10AE72E41140800B5
:100DFA007408003A031D0A2F7508003A031D0A2FCA
:100E0A00FF30F0007F30F100622F2000FD01F90170
:100E1A00F801710870040319003471087506FA00A4
:100E2A00FA1BFD09FB01F51F1F2FF409F509F40A46
:100E3A000319F50AF11F262FF009F109F00A03191F
:100E4A00F10A71087504FA00FA1B3B2FDD227B18A0
:100E5A004E2FFD1F0034F009F109F00A0319F10AB7
:100E6A00F809F909F80A0319F90A0034F51F4A2F93
:100E7A00F11B462F7108F9007008F800F101F00122
:100E8A002E2FF101F001F00A0034F109F009FB0AF2
:100E9A002B2FF80A0319F90A74087802031D2E2F5A
:100EAA0075087902031D2E2FF901F801F00A0319BA
:0C0EBA00F10AF11F2E2F0000FF34080089
:100EC6002000FB01730803199F2F7208FA00F2171E
:100ED6008E30F302F31FA22FF309F30A08307302D0
:100EE600031C852FF300F10D7208F100F2010830A2
:100EF6007302031C852FF300F10DF1017308031D26
:100F060003108D2F730803198D2F0310F20CF10CAB
:100F1600F30B882F7B1B711C972F031C972FF10A4D
:100F26000319F20AF21BAE2FFA1FB12FF209F109CB
:100F3600F10A0319F20AB12FF201F101B12F7B1464
:100F4600FB1FB42FF201FA1FB42FFF30F200F1009D
:100F5600FA0DF20CB42F0130FC00B62F0030FC0065
:100F6600B62FFF30FC00FC080319BA2FA222710825
:080F7600F0007208F100080010
:100F7E0021004D08230091009201951315131514AD
:060F8E001308F00008004A
:100F940020002508003A031DE42F2100CD01B226CC
:100FA40001307007F2000030713DF3007208C70091
:100FB4007308C8007208B8007308B900B937B80CD0
:060FC400B937B80C08006B
:100FCA0012001E00F003031DE52FF103031DE52F98
:020FDA0008000D
:1010000021000E118E110E128E108E120E10200065
:101010000E118E110E108E128E100E128031F720CE
:1010200088318031F72088318031F72088318E1463
:101030000E160E158031002188310E118031F720F7
:1010400088310E158031002188310E118031F72052
:1010500088310E158031002188310E118031F72042
:1010600088310E120E158031002188310E11803129
:10107000F72088310E158031002188310E118E1035
:101080000E140E158031002188310E118031F720A9
:1010900088310E100E160E158031002188310E1188
:1010A0000E120E158031002188310E118031F7208B
:1010B00088310E158031002188310E110E160E1563
:1010C0008031002188310E118031F72088310E12D5
:1010D0000E158031002188310E110E148E168E14DB
:1010E0000E160E158031002188310E118031F72047
:0810F0008831210041140800C1
:1010F80021002B08003A031D28293C30F400003059
:10110800F5003808F0003908F1008031FD268831F3
:1011180070082100B2003808F0003908F100803169
:10112800772688310030F4000030F5007030F60082
:101138008430F70080316325883170082100C900A8
:101148007108CA007208CB007308CC003208F0009E
:101158000030F01BFF30F1008031772688317008AD
:10116800F4007108F5007208F6007308F700210012
:101178004908F0004A08F1004B08F2004C08F30057
:101188008031D02288310030F4000030F500703012
:10119800F6008430F7008031172688317008210066
:1011A800B3007108B4007208B5007308B60070087F
:1011B800CD007108CE007208CF007308D0008031CE
:1011C8005524883180316327883170082100AC00AC
:1011D8003208CD00AD30CE000030CF008031F4248D
:1011E80088312C08CD00BC30CE000030CF008031D3
:1011F800F42488310230CD000530CE00BC30CF0059
:101208000030D0008031B82688310230CD00063059
:10121800CE006630CF000030D0008031B82688314B
:101228000230CD000230CE00AD30CF000030D0000B
:101238008031B82688314130FC00EE30FD00FD0BCE
:0A1248002329FC0B232900000800F5
:1012520021002B08003A031D942A20008D1A6E29C2
:1012620001302100AB0020008E178230FC00DD30FF
:10127200FD00FD0B3A29FC0B3A29000000008E13F9
:1012820021003808F0003908F100803177268831D2
:101292008530F400B130F5000530F6007B30F70000
:1012A20080316325883170082100CD007108CE009D
:1012B2007208CF007308D000803155248831803104
:1012C2006327883170082100BA007108BB00200032
:1012D2001C152800171520000E170D1A86298E17C7
:1012E2008230FC00DD30FD00FD0B7529FC0B7529F9
:1012F200000000008E1301302100AB0001302000FD
:10130200C50028001E1520000E178D19C8290130AE
:101312002100AB0020008E178230FC00DD30FD0082
:10132200FD0B9129FC0B9129000000008E13210076
:101332003808B700F030CD003808CE00803194264E
:10134200883101302100CD000130CE002630CF009F
:101352000030D0008031B82688311030FB0039309F
:10136200FC000D30FD00FD0BB429FC0BB429FB0B76
:10137200B429000000000130CD000130CE002F3032
:10138200CF000030D0008031B8268831AB01200078
:101392000D19942A01302100AB0001302000A50074
:1013A2008E178230FC00DD30FD00FD0BD629FC0BD0
:1013B200D629000000008E1301302100CD0001303B
:1013C200CE003830CF000030D0008031B8268831CE
:1013D200F030CD008031BF27883170082100B7007E
:1013E2003C30F4008031EE21883170082100B200D7
:1013F2003708F0008031462488310030F400003094
:10140200F5007030F6008430F700803163258831B2
:1014120070082100C9007108CA007208CB00730865
:10142200CC003208F0000030F01BFF30F1008031B8
:10143200772688317008F4007108F5007208F6000A
:101442007308F70021004908F0004A08F1004B0830
:10145200F2004C08F3008031D02288310030F400D1
:101462000030F5007030F6008430F7008031172626
:10147200883170082100B3007108B4007208B50009
:101482007308B6007008CD007108CE007208CF0054
:101492007308D00080315524883180316327883128
:1014A20070082100AC003208CD00AD30CE00003013
:1014B200CF008031F42488312C08CD00BC30CE001E
:1014C2000030CF008031F42488310230CD00053065
:1014D200CE00BC30CF000030D0008031B826883139
:1014E2000230CD000630CE006930CF000030D0008F
:1014F2008031B82688310230CD000230CE00AD30C6
:10150200CF000030D0008031B82688314130FC0055
:10151200EE30FD00FD0B8B2AFC0B8B2A00003708F6
:08152200B800B901AB0108009B
:10152A0020006808013A031D162B01302100CD0066
:10153A000130CE00A030CF000030D0008031B82674
:10154A008831AC032C08FF3A031DAE2AB2033B30A4
:10155A00AC002C08003A031DCE2A0230CD00073019
:10156A00CE006D30CF000030D0008031B8268831EF
:10157A000630FB001330FC00AD30FD00FD0BC32A22
:10158A00FC0BC32AFB0BC32A00000000B2033B304A
:10159A00AC0080303206F0008030003A7002031846
:1015AA00D82AB201AC013208CD00AD30CE000030ED
:1015BA00CF008031F42488312C08CD00BC30CE0015
:1015CA000030CF008031F42488310230CD0005305C
:1015DA00CE00BC30CF000030D0008031B826883130
:1015EA000230CD000630CE00A930CF000030D00046
:1015FA008031B82688310230CD000230CE00AD30BD
:10160A00CF000030D0008031B82688314130FC004C
:10161A00EE30FD00FD0B0F2BFC0B0F2B0000200002
:10162A00E8016B080319272B01302100CD00013096
:10163A00CE002F30CF000030D0008031B82688315C
:06164A002000EB01080086
:1016500021008D160D168D150D158E130E130C14FD
:1016600023008C018D010C1421001D139D121D12ED
:101670009D111D119D101D149E171E139E121E12EA
:101680001E119E101E10951324000D158D150D169C
:101690008D168B170B1721009114200091101C1729
:1016A0009C161C169C151C119C141C10FF309B00D2
:1016B000210093142000931028001717971617166F
:1016C0009715171197141710FF30960021009315E6
:1016D0002000931128001E179E161E169E151E111F
:1016E0009E141E10FF3096008B150B102700151648
:1016F00016128230FC00DD30FD00FD0B7D2BFC0B53
:101700007D2B0000000000208230FC00DD30FD0059
:10171000FD0B882BFC0B882B000000000130DD0046
:101720008031912188310C302100DD008031912100
:10173000883101302100CD000130CE004C30CF0087
:101740000030D0008031B82688310230CD00013021
:10175000CE005530CF000030D0008031B82688311F
:10176000C20180304206F0008030033A7002031854
:10177000D92B20008E170230FB000430FC00BA3059
:10178000FD00FD0BC12BFC0BC12BFB0BC12B000083
:101790008E130230FB000430FC00BA30FD00FD0B5C
:1017A000CF2BFC0BCF2BFB0BCF2B00002100C20A51
:1017B000B12B20000E131030FB003930FC000D302F
:1017C000FD00FD0BE12BFC0BE12BFB0BE12B0000E3
:1017D000000001302100DD0080319121883101308D
:1017E0002100CD000130CE002F30CF000030D000DE
:0817F0008031B82688310800A1
:1017F80020006C08013A031D562C01302100CD0051
:101808000130CE005D30CF000030D0008031B826E6
:1018180088312000CA0A4A083C3A031D152CCB0A15
:10182800CA014B082100CD00AD30CE000030CF00FA
:101838008031F424883120004A082100CD00BC30D2
:10184800CE000030CF008031F42488310230CD0042
:101858000530CE00BC30CF000030D0008031B82633
:1018680088310230CD000630CE004630CF0000303F
:10187800D0008031B82688310230CD000230CE0049
:10188800AD30CF000030D0008031B82688314130EB
:10189800FC00EE30FD00FD0B4F2CFC0B4F2C000024
:1018A8002000EC016B080319672C01302100CD00E2
:1018B8000130CE002F30CF000030D0008031B82664
:0818C80088312000EB0108004B
:1018D000BC2428238031CA2788317C2029219522E5
:0618E000FC236A2C722CAF
:10197800763084008C3085004630F0000130F1006C
:1019880025308600003087008031E5278831EE3029
:101998008400873085000930F0000130F100A03064
:1019A8008600003087008031E5278831F7308400D1
:1019B800873085000530F0000130F1006B3086007B
:1019C800003087008031E5278831FC30840087307B
:1019D80085000330F0000130F100A93086000030A6
:0A19E80087008031E52788310800F0
:100FDC0043346F3475346E3474342E342E342E34D2
:020FEC000034CF
:020FEE000034CD
:020FF0000034CB
:060FF2002034303400340D
:040FF8003A34003453
:020FFC000034BF
:0218EC000034C6
:1018EE00533474346F347234653464342034203499
:0218FE000034B4
:101900005334653474343A34203420342034203451
:021910000034A1
:101912004C346F346134643465346434203420349C
:0219220000348F
:041924000034003457
:041928000034003453
:02192C00003485
:04192E003A34003413
:041932000034003449
:02193600FF347C
:02193800003479
:10193A00543469346D346534723420347634313435
:02194A00003467
:10194C0053346B346934613464346134733400342B
:10195C004D3461346E34753461346C342E342E3421
:02196C00003445
:04196E003A340034D3
:0219720000343F
:041974003A340034CD
:020000040001F9
:04000E00A23F3316C4
:00000001FF
